:020000040800F2
:1000000000800120298C0008798C0008798C000878
:10001000798C0008798C0008798C000800000000B9
:10002000000000000000000000000000798C0008C3
:10003000798C000800000000798C0008CF8400084B
:10004000798C0008798C0008798C0008798C00087C
:10005000798C0008798C0008398600083F860008F2
:10006000458600084B86000851860008798C0008F8
:10007000798C0008798C0008798C0008798C00084C
:10008000798C0008798C0008798C0008798C00083C
:10009000798C0008798C0008798C00085786000854
:1000A000658E0008D58D0008758E0008798C0008D3
:1000B000F58D0008058E0008158E0008799200085D
:1000C00085920008919200089D920008798C0008A2
:1000D000798C0008ED980008059900081D99000822
:1000E0006D860008D1870008798C0008798C00089B
:1000F000558E0008798C0008798C0008798C0008EE
:10010000798C0008798C0008258E0008798C00080D
:100110003999000851990008358E0008458E00086D
:10012000798C0008798C0008798C0008798C00089B
:10013000798C0008798C0008798C0008798C00088B
:10014000798C0008798C0008798C0008798C00087B
:10015000798C0008798C000869990008798C00086E
:10016000A9920008B5920008798C0008798C0008E3
:10017000798C0008798C0008000000000000000065
:08018000798C0008798C00085D
:1001880010B5054C237833B9044B13B10448AFF3C9
:1001980000800123237010BD18010020000000001A
:1001A80090B500080C4B43B10C480D4910B5AFF39E
:1001B80000800C48036823B910BD0A48036833B9A6
:1001C8007047094B002BF7D0BDE810401847064B85
:1001D800002BF5D0184700BF0000000090B50008BC
:1001E8001C010020180100200000000010F8012B5D
:1001F80011F8013B012A28BF9A42F7D0D01A70475C
:10020800034613F8012B002AFBD1181A013870474E
:10021800000000000000000001F0FF01102A2BDBA5
:1002280010F0070F08D010F8013B013A8B422DD08F
:1002380010F0070F42B3F6D1F0B441EA012141EAC8
:10024800014122F007047FF000070023F0E802567E
:10025800083C85EA010586EA010685FA47F5A3FA0E
:1002680087F586FA47F6A5FA87F68EB9EED1F0BC7F
:1002780001F0FF0102F0070232B110F8013B013A28
:1002880083EA010313B1F8D10020704701387047A1
:10029800002D06BF35460338073815F0010F07D182
:1002A800013015F4807F02BF013015F4C03F0130E2
:1002B800F0BC0138704700BF81F0004102E000BF88
:1002C80083F0004330B54FEA41044FEA430594EA0E
:1002D800050F08BF90EA020F1FBF54EA000C55EA49
:1002E800020C7FEA645C7FEA655C00F0E2804FEA1A
:1002F8005454D4EB5555B8BF6D420CDD2C4480EAFC
:10030800020281EA030382EA000083EA010180EA2B
:10031800020281EA0303362D88BF30BD11F0004F79
:100328004FEA01314FF4801C4CEA113102D04042AF
:1003380061EB410113F0004F4FEA03334CEA1333EA
:1003480002D0524263EB430394EA050F00F0A78002
:10035800A4F10104D5F1200E0DDB02FA0EFC22FAFD
:1003680005F2801841F1000103FA0EF2801843FAF1
:1003780005F359410EE0A5F120050EF1200E012AE2
:1003880003FA0EFC28BF4CF0020C43FA05F3C01820
:1003980051EBE37101F0004507D54FF0000EDCF199
:1003A800000C7EEB00006EEB0101B1F5801F1BD342
:1003B800B1F5001F0CD349085FEA30004FEA3C0C46
:1003C80004F101044FEA445212F5800F80F09A803C
:1003D800BCF1004F08BF5FEA500C50F1000041EB40
:1003E800045141EA050130BD5FEA4C0C404141EB44
:1003F800010111F4801FA4F10104E9D191F0000F6B
:1004080004BF01460020B1FA81F308BF2033A3F1ED
:100418000B03B3F120020CDA0C3208DD02F1140CE4
:10042800C2F10C0201FA0CF021FA02F10CE002F11F
:100438001402D8BFC2F1200C01FA02F120FA0CFC18
:10044800DCBF41EA0C019040E41AA2BF01EB045161
:10045800294330BD6FEA04041F3C1CDA0C340EDC5F
:1004680004F11404C4F1200220FA04F001FA02F3A2
:1004780040EA030021FA04F345EA030130BDC4F160
:100488000C04C4F1200220FA02F001FA04F340EA55
:100498000300294630BD21FA04F0294630BD94F006
:1004A800000F83F4801306BF81F480110134013DED
:1004B8004EE77FEA645C18BF7FEA655C29D094EA5E
:1004C800050F08BF90EA020F05D054EA000C04BFDC
:1004D8001946104630BD91EA030F1EBF00210020C7
:1004E80030BD5FEA545C05D14000494128BF41F066
:1004F800004130BD14F580043CBF01F5801130BDCA
:1005080001F0004545F0FE4141F470014FF0000054
:1005180030BD7FEA645C1ABF194610467FEA655C05
:100528001CBF0B46024650EA013406BF52EA0335A7
:1005380091EA030F41F4002130BD00BF90F0000F95
:1005480004BF0021704730B54FF4806404F13204D1
:100558004FF000054FF0000150E700BF90F0000F8A
:1005680004BF0021704730B54FF4806404F13204B1
:1005780010F0004548BF40424FF000013EE700BF81
:1005880042004FEAE2014FEA31014FEA02701FBF11
:1005980012F07F4393F07F4F81F06051704792F0E3
:1005A800000F14BF93F07F4F704730B54FF460745D
:1005B80001F0004521F0004120E700BF50EA0102A8
:1005C80008BF704730B54FF000050AE050EA010255
:1005D80008BF704730B511F0004502D5404261EBC5
:1005E80041014FF4806404F132045FEA915C3FF406
:1005F800DCAE4FF003025FEADC0C18BF03325FEA9F
:10060800DC0C18BF033202EBDC02C2F1200300FA53
:1006180003FC20FA02F001FA03FE40EA0E0021FA78
:1006280002F11444C1E600BF70B54FF0FF0C4CF462
:10063800E06C1CEA11541DBF1CEA135594EA0C0F18
:1006480095EA0C0F00F0DEF82C4481EA030621EA53
:100658004C5123EA4C5350EA013518BF52EA03358E
:1006680041F4801143F4801338D0A0FB02CE4FF040
:100678000005E1FB02E506F00042E0FB03E54FF070
:100688000006E1FB03569CF0000F18BF4EF0010E68
:10069800A4F1FF04B6F5007F64F5407404D25FEA64
:1006A8004E0E6D4146EB060642EAC62141EA555117
:1006B8004FEAC52040EA5E504FEACE2EB4F1FD0C59
:1006C80088BFBCF5E06F1ED8BEF1004F08BF5FEAD7
:1006D800500E50F1000041EB045170BD06F0004689
:1006E80046EA010140EA020081EA0301B4EB5C0436
:1006F800C2BFD4EB0C0541EA045170BD41F480112E
:100708004FF0000E013C00F3AB8014F1360FDEBF52
:10071800002001F0004170BDC4F10004203C35DA2E
:100728000C341BDC04F11404C4F1200500FA05F3B1
:1007380020FA04F001FA05F240EA020001F0004252
:1007480021F0004110EBD37021FA04F642EB0601C8
:100758005EEA430E08BF20EAD37070BDC4F10C04F2
:10076800C4F1200500FA04F320FA05F001FA04F2B6
:1007780040EA020001F0004110EBD37041F10001A2
:100788005EEA430E08BF20EAD37070BDC4F12005AD
:1007980000FA05F24EEA020E20FA04F301FA05F215
:1007A80043EA020321FA04F001F0004121FA04F2BD
:1007B80020EA020000EBD3705EEA430E08BF20EA8D
:1007C800D37070BD94F0000F0FD101F000464000C7
:1007D80041EB010111F4801F08BF013CF7D041EA49
:1007E800060195F0000F18BF704703F0004652004D
:1007F80043EB030313F4801F08BF013DF7D043EA1E
:100808000603704794EA0C0F0CEA135518BF95EAD3
:100818000C0F0CD050EA410618BF52EA4306D1D15A
:1008280081EA030101F000414FF0000070BD50EA79
:10083800410606BF1046194652EA430619D094EA03
:100848000C0F02D150EA013613D195EA0C0F05D1ED
:1008580052EA03361CBF104619460AD181EA030141
:1008680001F0004141F0FE4141F470014FF00000F9
:1008780070BD41F0FE4141F4780170BD70B54FF094
:10088800FF0C4CF4E06C1CEA11541DBF1CEA135514
:1008980094EA0C0F95EA0C0F00F0A7F8A4EB0504F6
:1008A80081EA030E52EA03354FEA013100F08880ED
:1008B8004FEA03334FF0805545EA131343EA1263B6
:1008C8004FEA022245EA111545EA10654FEA00266B
:1008D8000EF000419D4208BF964244F1FD0404F524
:1008E800407402D25B084FEA3202B61A65EB030580
:1008F8005B084FEA32024FF480104FF4002CB6EB3D
:10090800020E75EB030E22BFB61A754640EA0C00BC
:100918005B084FEA3202B6EB020E75EB030E22BFFC
:10092800B61A754640EA5C005B084FEA3202B6EB3D
:10093800020E75EB030E22BFB61A754640EA9C00FC
:100948005B084FEA3202B6EB020E75EB030E22BFCC
:10095800B61A754640EADC0055EA060E18D04FEA8A
:10096800051545EA16754FEA06164FEAC30343EA2A
:1009780052734FEAC2025FEA1C1CC0D111F4801FF7
:100988000BD141EA00014FF000004FF0004CB6E7F0
:1009980011F4801F04BF01430020B4F1FD0C88BF8F
:1009A800BCF5E06F3FF6AFAEB5EB030C04BFB6EB9A
:1009B800020C5FEA500C50F1000041EB045170BD8D
:1009C8000EF0004E4EEA113114EB5C04C2BFD4EBBA
:1009D8000C0541EA045170BD41F480114FF0000E3E
:1009E800013C90E645EA060E8DE60CEA135594EABA
:1009F8000C0F08BF95EA0C0F3FF43BAF94EA0C0FBD
:100A08000AD150EA01347FF434AF95EA0C0F7FF431
:100A180025AF104619462CE795EA0C0F06D152EA85
:100A280003353FF4FDAE1046194622E750EA410669
:100A380018BF52EA43067FF4C5AE50EA41047FF47A
:100A48000DAF52EA43057FF4EBAE12E74FF0FF3CDF
:100A580006E000BF4FF0010C02E000BF4FF0010CB0
:100A68004DF804CD4FEA410C7FEA6C5C4FEA430C29
:100A780018BF7FEA6C5C1BD001B050EA410C0CBF78
:100A880052EA430C91EA030F02BF90EA020F0020DA
:100A9800704710F1000F91EA030F58BF994208BF41
:100AA80090422CBFD8176FEAE37040F001007047FE
:100AB8004FEA410C7FEA6C5C02D150EA013C07D155
:100AC8004FEA430C7FEA6C5CD6D152EA033CD3D0A0
:100AD8005DF8040B704700BF8446104662468C469A
:100AE8001946634600E000BF01B5FFF7B7FF0028CD
:100AF80048BF10F1000F01BD4DF808EDFFF7F4FFF6
:100B08000CBF012000205DF808FB00BF4DF808ED80
:100B1800FFF7EAFF34BF012000205DF808FB00BFA3
:100B28004DF808EDFFF7E0FF94BF012000205DF8C5
:100B380008FB00BF4DF808EDFFF7CEFF94BF01207A
:100B480000205DF808FB00BF4DF808EDFFF7C4FF73
:100B580034BF012000205DF808FB00BF4FEA4102C6
:100B680012F5001215D211D56FF47873B3EB6252F7
:100B780012D94FEAC12343F0004343EA505311F01E
:100B8800004F23FA02F018BF404270474FF00000B0
:100B9800704750EA013005D111F0004008BF6FF0EE
:100BA800004070474FF00000704700BF4A0011D264
:100BB80012F5001211D20DD56FF47873B3EB6252AF
:100BC8000ED44FEAC12343F0004343EA505323FABB
:100BD80002F070474FF00000704750EA013002D130
:100BE8004FF0FF3070474FF00000704753B94AB9D3
:100BF800002908BF00281CBF4FF0FF314FF0FF301D
:100C080000F07AB9ADF1080C6DE904CE00F006F8F1
:100C1800DDF804E0DDE9022304B070472DE9F04770
:100C28008C460D460446089E002B51D18A42174631
:100C38006DD9B2FA82FEBEF1000F0BD0CEF1200CB6
:100C480001FA0EF520FA0CFC02FA0EF74CEA050C34
:100C580000FA0EF44FEA174A250CBCFBFAF81FFA03
:100C680087F90AFB18CC45EA0C4508FB09F3AB42A7
:100C78000AD9ED1908F1FF3280F02381AB4240F226
:100C88002081A8F102083D44ED1AA4B2B5FBFAF0A0
:100C98000AFB105544EA054400FB09F9A14509D9A6
:100CA800E41900F1FF3380F00A81A14540F2078181
:100CB80002383C44A4EB090440EA08400021002E15
:100CC80061D024FA0EF4002334607360BDE8F08725
:100CD8008B4207D9002E54D0002186E8210008460F
:100CE800BDE8F087B3FA83F1002940F08E80AB426B
:100CF80002D3824200F2FA80841A65EB03050120D0
:100D0800AC46002E3FD086E81010BDE8F08712B937
:100D18000127B7FBF2F7B7FA87FEBEF1000F34D10F
:100D2800EB1B3A0C1FFA87FC0121B3FBF2F8250CE8
:100D380002FB183345EA03450CFB08F3AB4207D91D
:100D4800ED1908F1FF3002D2AB4200F2D1808046A3
:100D5800ED1AA3B2B5FBF2F002FB105543EA0544C5
:100D68000CFB00FCA44507D9E41900F1FF3302D2BB
:100D7800A44500F2B8801846A4EB0C0440EA0840E9
:100D88009DE731463046BDE8F087CEF1200405FAEC
:100D98000EF307FA0EF720FA04F83A0C25FA04F4D1
:100DA80048EA0308B4FBF2F14FEA184502FB114484
:100DB8001FFA87FC45EA044501FB0CF3AB4200FA35
:100DC8000EF409D9ED1901F1FF3080F08A80AB42A9
:100DD80040F2878002393D44EB1A1FFA88F5B3FBCD
:100DE800F2F002FB103345EA034500FB0CF3AB427B
:100DF80007D9ED1900F1FF386FD2AB426DD902382F
:100E08003D44EB1A40EA01418FE7C1F1200722FA7D
:100E180007F88B4005FA01F448EA030320FA07FEB5
:100E28004FEA134CFD404EEA040EB5FBFCF94FEABD
:100E38001E440CFB19551FFA83F844EA054509FBC3
:100E480008F4AC4202FA01F200FA01FA08D9ED18E6
:100E580009F1FF3043D2AC4241D9A9F102091D443E
:100E68002D1B1FFA8EFEB5FBFCF00CFB10554EEA4D
:100E7800054400FB08F8A04507D9E41800F1FF3540
:100E880029D2A04527D902381C4440EA0940A4EBDE
:100E98000804A0FB02894C45C6464D4615D312D01E
:100EA80056B1BAEB0E0364EB050404FA07F7CB401E
:100EB8001F43CC40376074600021BDE8F0871846B6
:100EC800F8E69046E0E6C245EAD2B8EB020E69EBD6
:100ED80003050138E4E72846D7E7404691E781460D
:100EE800BEE7014678E702383C4445E7084608E78C
:100EF800A8F102083D442BE7704700BF2DE9F041F7
:100F080005460C4614481549134F164604F037F8A1
:100F18002946114804F033F811490F4804F02FF816
:100F2800254604EB0608454505D015F8011B38464B
:100F380004F029F8F7E7084804F02EF8012E09D93B
:100F480063784E2B0CBF012100210D20BDE8F04134
:100F580008F0A0BDBDE8F081B006002031B6000859
:100F680043B60008F0B50A2087B008F0D7FD384826
:100F780001F082FFFF2804D13649374804F01EF8F3
:100F8800FEE73348354C364D364F334E01F098FF67
:100F9800014603A804F0C7F833492F4803F0EFFFD0
:100FA80003A92D4804F000F830492B4803F0E7FF67
:100FB8002168294804F002F82B68032B10D0394621
:100FC800304603F0DCFF2A4A2168126820480423CF
:100FD80001F058FF28604FF4FA6008F09FFDEBE736
:100FE8001D4803F0D9FF23491B4803F0E7FF2249B6
:100FF800194803F0C4FF2168174803F0DFFF1F49B1
:10100800154803F0BCFF01A8114901F061FF01A9CF
:10101800114803F0DDFF01A80D4901F059FF9DF8C3
:101028000B201749174809F013FA17490A4803F023
:10103800A6FF1449084803F0C1FF124A134914488F
:1010480009F006FA03A804F029F807B0F0BD00BFBC
:10105800F4010020A8B50008B00600200800002010
:101068001005002065B60008C1B50008D4B5000811
:1010780004000020F7B5000806B600080EB6000800
:101088001BB60008000200201EB6000825B600089E
:10109800D802002038B50121244C0D2008F0B4FCFA
:1010A80006224FF4E131224803F0A6FEFFF75AFF6B
:1010B80040F25B721F49204602F0DBFB1E492046C6
:1010C80002F0DCFB982004F0EFF81C4C23220546C4
:1010D800242102F055FF2846256002F0B1FF0820C0
:1010E80004F0E2F82168054602F03DFC144B28465E
:1010F8001D6002F0D7FB0C2004F0D6F821680546E5
:1011080003F088F80F4B28461D6003F039F90820D2
:1011180004F0CAF82168054603F0C2FB0A4B2846CA
:101128001D60BDE8384003F0BCBA00BF20020020B3
:10113800B006002042B70008050F0008F80200209A
:10114800340100203C0100203801002070B51F4DFB
:101158001F4C204E1D4802F0E6F9002835D13146D3
:101168001B4803F00CFF1C49194803F008FF1B49F2
:10117800174803F004FF1A4B1A4A1749284602F089
:10118800EBFA68B11849204603F018FF174A1849C6
:10119800284602F025FB1749284602F067FBD9E7E5
:1011A8001549204603F0EBFE284602F06AFB0A22A6
:1011B8000146204603F058FF1049204603F0FEFE82
:1011C80041F2883008F0AAFCC4E770BD2002002074
:1011D800B006002046B60008D802002062B6000813
:1011E80067B600086CB60008FCB5000871B60008C0
:1011F80085B6000896B60008A7B60008B3B600087A
:1012080030B58FB00023089309930A9356480023FA
:101218000B930C930D9302F086F908B9FFF796FF2C
:10122800524B0BA9186803F095FA08F075FC504A60
:10123800136842F21071C31A8B4246DD4D4D10609F
:1012480008A928684C4C02F04DFB0898FFF798F95C
:10125800224641EC100B0221062003F077FF09A972
:101268002868464D02F025FB454B0AA9186803F08B
:1012780001F80A98FFF784F92A4641EC100B02217D
:10128800062003F063FFDDED097A0D9B0593FCEE64
:10129800E77A0C9B04930B9BCDED017A0393394AB3
:1012A800394B02954FF400710094384809F09CF8C6
:1012B800364A37492C4802F093FA3649364803F043
:1012C8005EFE3249344803F079FE0B98FFF746F981
:1012D800CDE906010C98FFF741F99DED061B41EC9D
:1012E800100B09F0ADFE00222C4B51EC100BFFF750
:1012F8009BF91BA3D3E90023FFF7C0FA0022284B70
:1013080004460D46FFF716FCC8B10022254B2046BF
:101318002946FFF705FC90B1052401210D2008F0AE
:10132800B9FB322008F0FAFB00210D2008F0B2FBCF
:10133800322008F0F3FB013CEFD10FB030BD0121A2
:101348000D2008F0A7FBFA2008F0E8FB00210D208B
:1013580008F0A0FBFA2008F0E1FBEEE7AFF300800D
:10136800182D4454FB210940200200203801002098
:10137800FC02002034010020140500200005002094
:101388003C010020CBB6000800020020000300202A
:1013980027B7000837B70008B0060020008066406D
:1013A800000024C00000244013B5002300931A460F
:1013B8001946104C104803F0A3FDFF2300932D227B
:1013C8002C232E21204600F069F821463D220B4CA3
:1013D8000B4826238DE80C003723362201F02CFD1C
:1013E800204601F0E7FC0748214602B0BDE810405E
:1013F80001F068BF40010020F8010020E001002052
:10140800F401002020020020552970B504461DDC97
:1014180000230C26042BD8B206D006FB03F50133B3
:10142800655FA942F6D170BD012A0FD100230C22B5
:10143800042BD8B21D4609D0013302FB034636F906
:101448000C6C0136F4D16A43A15270BD042070BD02
:1014580070B5104E034600F130044FF6FF720121BB
:1014680000251A805E60197299725D720C33A3426E
:10147800F7D1094B02861A7B80F89C20DA7A80F82B
:101488009D205B7B80F89E304FF0FF3380F89F30C3
:1014980070BD00BF00093D0015BE00082DE9F041F0
:1014A800DFF874809DF81850044600F1300E4FF6AE
:1014B800FF7601274FF0000C2680C4F804802772BD
:1014C800A77284F809C00C34A645F5D1542A98BFF0
:1014D800104C068694BFA2564FF0FF32542980F86C
:1014E8009C2096BF0B4A4FF0FF32525680F89D2041
:1014F800542B96BF074A4FF0FF33D35680F89E30DF
:10150800542D96BF034B4FF0FF335B5780F89F3045
:10151800BDE8F08115BE000800093D0082B0F8B5AD
:10152800552906AC06460F4684E80C0032DC012239
:10153800FFF76AFF032805462CDC04B204EB4404D9
:1015480006EB8404079B63600C2303FB00639DF890
:1015580021205A729DF820201A72012A18BF0022F1
:10156800552F9A720BD096F99F30013307D101217C
:10157800384608F049FA0121384608F08BFA0C235E
:1015880003FB05656168AB7A6A7A06F1340007F0F7
:1015980043F93786BDE8F84002B070475529F0B5E1
:1015A80017DC0C4E034600F130044FF6FF7501229C
:1015B8000027A3420AD0B3F900E0714504D11D8089
:1015C8005E601A729A725F720C33F2E74FF6FF731D
:1015D8000386F0BD00093D0070B504460D4D34305A
:1015E80007F0CEFA04F13C0623464FF6FF720121BC
:1015F80000200C33B3420AD023F80C2C43F8085CC3
:1016080003F8041C03F8021C03F8030CF1E7228614
:1016180070BD00BF00093D002DE9F04186B0552995
:10162800ADF80E204FF0000204460D461F46ADF8F7
:10163800162054DCFFF7E8FE0328064604DDBDF853
:10164800160006B0BDE8F081B4F930309D4204F1CF
:10165800340809D00C2101FB004140468B7A4A7AB4
:10166800496807F0D9F825860C2303FB06439B7AC3
:1016780033B1BDF80E20130243EA1223ADF80E3041
:10168800552D07D094F99F30013303D10021284606
:1016980008F000FA4FF47A7300930DF11602022352
:1016A8000DF10E01404607F0ABFA552D09D0012F78
:1016B80007D194F99F30013303D13946284608F001
:1016C800E9F90C2303FB0644A37A002BB7D0BDF835
:1016D8001620130243EA1223ADF81630AFE710467E
:1016E800AFE700000148FFF7B3BE00BF24050020A4
:1016F8000830704728307047683070473830704776
:10170800483070475830704790F87C08704790F818
:101718007C280023934209DA8B4205D12C2202FB54
:10172800030000F2C46070470133F3E700207047FC
:1017380090F87C280023934209DA8B4205D12C22A9
:1017480002FB030393F8E50670470133F3E7002033
:10175800704790F87C280023934209DA8B4205D120
:101768002C2202FB0303B3F9E60670470133F3E7C3
:10177800002070470329DFBF00EB011080F88118B3
:1017880080F88028A0F88438704730B50329039D75
:1017980015DC00EB011484F8811884F88028A4F87B
:1017A8008238A4F884382B7984F886386B7984F8E1
:1017B8008738AB7984F88838EB7984F8893830BD74
:1017C80090F8C008704700F6C100002310F8012BFC
:1017D8000AB958B270470133DBB2042BF6D14FF087
:1017E800FF3070470329DABF401890F8C10801207C
:1017F80070472DE9F84305460E46F1B103685B686A
:10180800984795F87C8805F2C467002405F18D098E
:10181800A04512DD38464946FEF7E8FC2C3778B972
:101828002C2303FB045404F2E764731E721D14F89E
:10183800011F03F8011F9342F9D13046BDE8F88330
:101848000134E5E72DE9F3419846124B036004465D
:1018580018200E46174603F027FD9DF82430019303
:101868009DF8203000933A4643463146054601F03C
:1018780089FB00232046656084F8C13884F8C238A3
:1018880084F8C33884F8C43884F8C03802B0BDE896
:10189800F08100BFACB80008A1F13000C0B209283F
:1018A8000FD9A1F16103052B03D8A1F15700C0B2EC
:1018B8007047A1F14103052B02D8A1F13700F6E7E3
:1018C80000207047F8B507460D46B9B10E4600200E
:1018D800731B16F8011BA1F13004092CDBB204D9E3
:1018E80021F02004413C052C05D804013846FFF7B7
:1018F800D3FF2044ECE712B11370F8BD0846F8BDD9
:10190800F0B5C9B10B782D2B06BF01310125002593
:1019180001392B4600200A2611F8014F303CE7B266
:10192800092F04D8013306FB0040DBB2F4E702B10B
:10193800137015B14042F0BD0846F0BD2DE9F743DC
:10194800804617460C46B9B1B2B100254FF00109DF
:1019580023788BB13A2B8DF8079009D00DF1070247
:1019680021464046FFF7AEFF6E1CF6B27855354665
:101978009DF807301C44EBE703B0BDE8F0832DE980
:10198800F743804617460C46B9B1B2B100254FF06F
:10199800010923788BB12E2B8DF8079009D00DF112
:1019A800070221464046FFF7ABFF6E1CF6B278559A
:1019B80035469DF807301C44EBE703B0BDE8F083DB
:1019C80010B50C4609B31749204608F0ADFDF0B92B
:1019D8001549204608F0A8FDD8B91449204608F052
:1019E800A3FDC0B91249204608F09EFDA8B91149C7
:1019F800204608F099FD90B90F49204608F094FD5B
:101A080000280CBFFF20022010BDFF2010BD0020C1
:101A180010BD012010BD042010BD052010BD0320FD
:101A280010BD00BF91B7000896B700089AB7000824
:101A3800A3B700089EB70008ADB700082DE9F0412C
:101A480004460846002941D02149224F204E023041
:101A580008F086FD002504F16808EBB2B0B3062B48
:101A680027D8DFE803F0040B10151A1F2C000146D5
:101A7800202204F1080008F042FD1AE00146102275
:101A880004F12800F7E70146102204F13800F2E7D4
:101A98000146102204F14800EDE70146102204F146
:101AA8005800E8E7014600222046FFF729FFC4F85E
:101AB80088003146002008F053FD0135CDE739464E
:101AC80008F04EFD202201464046D4E7BDE8F081EB
:101AD80067B700089CB900082DE9F047804617460B
:101AE8000846002946D02549DFF8909008F038FDCF
:101AF800002604463546B246F3B2002C3BD0002DF2
:101B080039D1013B072B10D8DFE803F004161D0F6D
:101B18000F240F2B2046FEF773FB2044212200F8E8
:101B280001AC611C384608F0EAFC4946002008F080
:101B380017FD01360446DFE707F124022146404637
:101B4800FFF7FCFEF1E7002221464046FFF7D8FEEA
:101B58007884EAE721464046FFF732FF87F82100FC
:101B6800E3E7002221464046FFF7CAFE012587F831
:101B78002A00DAE70D462846BDE8F08767B700086F
:101B88002DE9F843054614460846002962D0002A84
:101B980060D03149DFF8C090023008F0E1FC00263F
:101BA800014604F15808002954D0771CFFB20B2EC7
:101BB8000BD8DFE806F006181B22293036393C3FDF
:101BC80041482122204608F09AFC4946002008F0A6
:101BD800C7FC014628B110F8013C2C2B01D1023674
:101BE800F7B23E46DFE72122A018ECE7002228469C
:101BF800FFF786FE84F84200E7E700222846FFF751
:101C08007FFE84F84300E0E700222846FFF778FECD
:101C180084F84700D9E704F148022846FFF7AFFEE9
:101C2800D3E704F14C02F8E704F15002F5E704F1B8
:101C38005402F2E74246F0E700222846FFF760FE2A
:101C480084F84400C1E700222846FFF759FE84F8CB
:101C58004600BAE7BDE8F88367B700082DE9F843FE
:101C680007461646084689B382B31949DFF86090DB
:101C7800023008F075FC0024014606F1060829B375
:101C8800651C022CEDB215D0042C19D0012C03D1FF
:101C980042463846FFF773FE4946002008F060FCCC
:101CA800014628B110F8013C2C2B01D10234E5B2D1
:101CB8002C46E4E700223846FFF722FEB080EBE727
:101CC80000223846FFF71CFE7080E5E7BDE8F88380
:101CD80067B70008F8B503464068D3F88C36A2F118
:101CE8000A0514460268ADB216692A460F46B0477F
:101CF800061E10DDA6420EDA0024BC550A493846F5
:101D080008F012FC48B90949384608F00DFC30B90A
:101D18002DB2AE4205D00420F8BD2046F8BD022001
:101D2800F8BD0120F8BD00BFDAB70008E3B7000826
:101D3800F8B500F58A75466804462846FEF760FA45
:101D4800336882B2DF68D4F88C3629463046B84703
:101D5800002807DD294620464FF4AF62BDE8F84069
:101D6800FFF7B8BF0420F8BD40F6FF7370B5C0F8A0
:101D78008C360446406803681B689847A0B904F588
:101D88008A760A49304608F096FB0949304608F039
:101D980083FB2046FFF7CCFF054618B9314620469D
:101DA800FFF74CFE284670BD0225FBE769B700081F
:101DB8009CB9000810B500F58A7304460549184611
:101DC80008F079FB044908F067FB2046BDE810409D
:101DD800FFF7AEBFEEB700089CB90008F8B5054696
:101DE8000E4609B300F58A771049384608F063FBB8
:101DF8000F49384608F050FB2846FFF799FF98B975
:101E08000C4905F58B7008F0ABFB05F58774224685
:101E180001462846FFF792FD2246731E12F8011B61
:101E280003F8011FBA42F9D13046F8BD04B80008DA
:101E38009CB9000801B8000800F58A7310B50B4971
:101E48000446184608F037FB094908F025FB2046E8
:101E5800FFF76EFF024630B904F58B712046BDE8E6
:101E68001040FFF74DBD002010BD00BFBDB70008F2
:101E78009CB9000870B5044686B029B3134E0B7898
:101E880005964A7904920A790392CA7802928A7866
:101E980001924A78009200F58A750D4A0D49284644
:101EA80008F0D6FA2046FFF743FF68B90A492846E2
:101EB80008F001FB3146284608F0EEFA204606B045
:101EC800BDE87040FFF734BF06B070BD9CB900088C
:101ED8000AB800080DB8000824B8000810B500F5C5
:101EE8008A7304460549184608F0E5FA044908F0DB
:101EF800D3FA2046BDE81040FFF71ABF5AB80008C9
:101F08009CB9000810B500F58A73044605491846BF
:101F180008F0D1FA044908F0BFFA2046BDE810409D
:101F2800FFF706BFFCB700089CB9000873B50B465D
:101F38000446D1B100F58A750D4E00960D4A0E493A
:101F4800284608F085FA2046FFF7F2FE68B90B49E3
:101F5800284608F0B0FA3146284608F09DFA20468F
:101F680002B0BDE87040FFF7E3BE02B070BD00BF2D
:101F78009CB9000827B800082AB8000824B8000847
:101F88002DE9FF41044690461F46002937D01D4ED3
:101F98000B780396CA7802928A7801924A7800925E
:101FA80000F58A75184A1949284608F051FA20465A
:101FB800FFF7BEFE18BB00964346154A154928464A
:101FC80008F046FA2046FFF7B3FEC0B900963B4634
:101FD800114A1049284608F03BFA2046FFF7A8FEA8
:101FE80068B90E49284608F066FA3146284608F0CE
:101FF80053FA204604B0BDE8F041FFF799BE04B09B
:10200800BDE8F0819CB900086CB700086FB70008FC
:1020180080B7000883B700088BB700088EB70008A0
:102028002DE9FF414318044600EB0118012284F80A
:10203800C01800F58A7783F8C1282F4E98F88138A0
:102048002E4A00960D4638462D4908F001FA2046DA
:10205800FFF76EFE00284BD198F88038294A009681
:102068002749384608F0F4F92046FFF761FE0028B2
:102078003ED198F88038012B0BD1B8F8843843B199
:102088000096214A1E49384608F0E2F92046FFF733
:102098004FFEB8F882381D4A00961949384608F0AC
:1020A800D7F92046FFF744FE10BB04EB051598F856
:1020B8008638039695F88928029295F8882801921F
:1020C80095F8872800921249124A384608F0C0F954
:1020D8002046FFF72DFE58B9074B0F4A0F493846DF
:1020E80008F0B6F9204604B0BDE8F041FFF720BE7D
:1020F80004B0BDE8F08100BF9CB900085DB80008D5
:1021080083B7000860B8000863B8000866B800081C
:102118006FB7000869B800086CB800086FB8000805
:1021280073B50446421884F8C0180B4600F58A7542
:1021380000210D4E82F8C118284600960B4A0C491A
:1021480008F086F92046FFF7F3FD58B93346094AE7
:102158000949284608F07CF9204602B0BDE87040DD
:10216800FFF7E6BD02B070BD9CB900085DB8000875
:1021780083B700086CB8000853B8000804292DE993
:10218800F34704460E46904600F3B8805D4F5E4A1A
:102198005E4900F58A753B46284608F059F92046FD
:1021A800FFF7C6FD002840F0A980A319012204EB1F
:1021B800061984F8C06883F8C12899F88138544A08
:1021C80000975449284608F043F92046FFF7B0FD28
:1021D800002840F0938099F880384F4A00974D497D
:1021E800284608F035F92046FFF7A2FD002840F000
:1021F8008580B9F88438494A00974649284608F046
:1022080027F92046FFF794FD002877D13B46444A3A
:102218004449284608F01CF92046FFF789FD0028A4
:102228006CD1B8F1000F2AD16068036842461F6973
:10223800D4F88C362946B84700285FDD3A49284645
:1022480008F072F9002859D0384904F58B7008F065
:1022580087F93649404608F083F93449404608F082
:102268007FF93349404608F07BF94A46014602F6B1
:102278008602204602B0BDE8F047FFF780BBB8F100
:10228800010F3BD1DFF8B080DFF8B0A0B946414676
:10229800284608F010F94946284608F0FDF8204677
:1022A800FFF746FD074648BB5146284608F03CF96B
:1022B800E8B12049284608F037F9C0B11A4928463C
:1022C80008F032F998B1194904F58B7008F048F90B
:1022D8001649384608F044F91449384608F040F9D8
:1022E8001349384608F03CF904EB0612BEE760686B
:1022F80003684FF47A719B689847C8E702B0BDE855
:10230800F08700BF9CB9000876B8000879B80008C3
:102318005DB8000883B7000860B8000863B8000813
:1023280085B800086FB8000888B8000878C10008A8
:1023380091B800089DB8000893B8000896B800083E
:1023480073B50446421884F8C0180B4600F58A7520
:1023580000210D4E82F8C118284600960B4A0C49F8
:1023680008F076F82046FFF7E3FC58B93346094AE7
:102378000949284608F06CF8204602B0BDE87040CC
:10238800FFF7D6BC02B070BD9CB900085DB8000864
:1023980083B7000885B8000853B800082DE9F3474B
:1023A8006B4E00F58A7504460F4690463346694AD7
:1023B8006949284608F04CF82046FFF7B9FC002880
:1023C80040F0C280E319012204EB071984F8C078B1
:1023D80083F8C12899F88138604A009660492846F0
:1023E80008F036F82046FFF7A3FC002840F0AC8040
:1023F80099F880385B4A00965949284608F028F829
:102408002046FFF795FC002840F09E80B9F88438F4
:10241800554A00965249284608F01AF82046FFF710
:1024280087FC002840F090803346504A504928469F
:1024380008F00EF82046FFF77BFC002840F0848067
:102448003146284608F028F833464A4A4A49284679
:1024580007F0FEFF2046FFF76BFC002874D1B8F1A7
:10246800000F32D16068036842461E69D4F88C3682
:102478002946B04700281CDD4049284608F054F892
:10248800B8B13F4904F58B7008F06AF83C494046FA
:1024980008F066F83A49404608F062F8394940467B
:1024A80008F05EF84A46014602F686022046FFF723
:1024B80066FA274B344A3049284607F0C9FF2046B8
:1024C80002B0BDE8F047FFF733BCB8F1010F3BD1CC
:1024D800DFF8BC80DFF8BCA0B1464146284607F0CB
:1024E800EAFF4946284607F0D7FF2046FFF720FCB9
:1024F800064648BB5146284608F016F8E8B1234975
:10250800284608F011F8C0B11C49284608F00CF814
:1025180098B11B4904F58B7008F022F81849304629
:1025280008F01EF81649304608F01AF815493046E2
:1025380008F016F804EB0712B5E7606803684FF473
:102548007A719B689847C8E702B0BDE8F08700BF7A
:102558009CB9000876B8000879B800085DB800088A
:1025680083B7000860B8000863B8000846B80008D8
:1025780049B8000885B800086FB8000888B800088E
:1025880078C1000891B8000850B800089DB8000844
:1025980093B8000896B8000870B500F58A75044627
:1025A8000F4B104A1049284607F052FF2046FFF704
:1025B800BFFBA0B90B4A0A4B0C49284607F048FF55
:1025C8002046FFF7B5FB024648B9606803681E69F4
:1025D800D4F88C362946B446BDE87040604770BDD3
:1025E8009CB9000850B8000838B800083FB800087F
:1025F8002DE9F3411F46044690460B46002940D07A
:10260800002A3ED000F58A751F4E00961F4A2049C1
:10261800284607F01DFF2046FFF78AFB70BB00968F
:1026280043461C4A1A49284607F012FF2046FFF77E
:102638007FFB18BB84F88C7000963B46164A1749F6
:10264800284607F005FF2046FFF772FBB0B942F2B3
:102658001073C4F88C361249284607F02CFF31460F
:10266800284607F019FF2046FFF762FB10B901233F
:1026780084F8D23040F6FF73C4F88C3602B0BDE857
:10268800F0810220FAE700BF9CB90008B1B7000842
:102698002AB80008B4B70008B7B7000883B700081D
:1026A800BAB7000870B50B4686B004461546E1B1C6
:1026B800DAB10F4E00960F4A0F4900F58A7007F0FD
:1026C800C7FE2046FFF734FB78B9314604F58B7016
:1026D80007F046FF03AA01462046FFF750F903A971
:1026E80004A802F019FC059B6B6006B070BD00BF22
:1026F8009CB90008EBB700082AB800082DE9F04F8C
:102708000446A3B000258022294604F58A7702A84A
:10271800019507F0AEFA324984F87C58384607F03C
:10272800CAFE3049384607F0B7FE2046FFF700FBDF
:102738000128064650D801AA2B49DFF8AC90384644
:1027480007F061FF4FF02C0A054640F2C46BCDB389
:1027580094F87C88B8F1090F34DC2B78232B08D047
:1027680001AA4946002007F04EFF0546EFE7064656
:10277800EDE7294602A807F09EFE1AFB08B222449C
:1027880002A92046FFF7A8F928B194F87C3801334C
:1027980084F87C38E4E7012EE9D12946384607F069
:1027A8008AFE2846FDF72CFDC0F5AF62391892B2B3
:1027B8002046FFF78FFA012806460DD801AA494698
:1027C8003846D0E7012E07D14FF4AF62394620468C
:1027D800FFF780FA0646F5E723B0BDE8F08F00BFA3
:1027E80032B800089CB9000802B8000870B5044661
:1027F8001D4609B9022070BD002BFBD04068036854
:10280800DE68D4F88C36B04700281BDD60680368A2
:102818004FF4AF621E69D4F88C362946B047431E80
:102828009BB240F2765293420CD800242C540749AC
:10283800284607F079FE38B90549284607F074FE9E
:102848000028D7D1042070BD204670BDDAB7000833
:10285800E3B700082DE9F347DDF82880DDF82C9070
:1028680004461E469246002A47D0B8F1000F44D0CD
:10287800B3F5966F41DC00F58A75234F80F8C018D0
:102888000B460097214A2249284607F0E1FD2046D9
:10289800FFF74EFA88BBC4F88C960097A9F1640339
:1028A8001C4A1D49284607F0D3FD2046FFF740FA89
:1028B80018BB3346194A1A490097284607F0C8FD3D
:1028C8002046FFF735FA8146B8B91649284607F079
:1028D800F2FD3946284607F0DFFD3246514604F23C
:1028E800171007F0A1F9F21C2B4692B22946204690
:1028F800FFF77CFF20B9A8F8006002B0BDE8F087B8
:10290800A8F80090F9E700BF9CB900085DB8000876
:1029180083B70008C0B70008C3B70008CCB70008E1
:10292800CFB70008D7B700082DE9F047089F04463D
:1029380016461D46884611B90220BDE8F087002AD0
:10294800FAD0002FF8D0D0F804900846FDF758FCCC
:10295800D9F8003082B2D3F80CA0D4F88C364146AE
:102968004846D047002845DD606803684FF4AF62E9
:10297800D3F81080D4F88C3604F58A71C04780B239
:10298800012837D994F814310D2B03D094F8153158
:102998000A2B2FD1023883B204F58B7853B308EB96
:1029A800030212F8012C152A02D1013B9BB2F5E76C
:1029B800072B1FD94FF00009A3F1080408F803906A
:1029C8000E4908EB040007F0AFFD60B1A3B29D42C9
:1029D800A8BF1D463D802A464146304607F024F9E7
:1029E8004846BDE8F0870649404607F09DFD08B116
:1029F8008045A1D00420BDE8F08700BFDAB7000801
:102A0800FFB700082DE9F74FDDF830B004460E4651
:102A18001F469246002A46D0BBF1000F43D0B3F5BB
:102A2800966F40DC00F58A75DFF8A08084F8C0183E
:102A38000B46204A2049CDF80080284607F008FDBB
:102A48002046FFF775F9814668BBCDF800803B4604
:102A58001A4A1949284607F0FBFC2046FFF768F98F
:102A680020BB0D9BC4F88C36154ACDF80080643B1A
:102A78001449284607F0ECFC2046FFF759F9804630
:102A880088B91149284607F016FDCDF800B03B4635
:102A9800524629462046FFF747FF20B1344484F8C0
:102AA800C188ABF8008003B0BDE8F08FABF80090A8
:102AB800F9E700BF5DB8000883B70008F1B7000860
:102AC800F4B70008C3B70008F7B700089CB90008B6
:102AD80070B500F58A7504460A49284607F0EBFCEC
:102AE8000949284607F0D8FC2046FFF721F9064691
:102AF80028B904F18D0229462046FFF741F83046EF
:102B080070BD00BF35B800089CB9000838B5044648
:102B18000D460846FFF7DCFF05F1D501204602F017
:102B2800FBF9204638BD38B504460D460846FFF780
:102B3800CFFF05F1D901204602F0EEF9204638BD55
:102B480038B504460D460846FFF7C2FF05F1DD011A
:102B5800204602F0E1F9204638BD10B50446FFF7DB
:102B6800B7FF04F18D0010BD10B50446FFF7B0FFA4
:102B780094F8CF0010BD0000F8B500F58A7504463A
:102B88000E4628460A4907F096FC0A49284607F0E7
:102B980083FC2046FFF7CCF8074638B906F18802CF
:102BA80004EB021229462046FFF758F83846F8BDCC
:102BB80007B800089CB90008F8B504460E461F4639
:102BC8001546AAB1A3B1032912DCFFF7D5FF04EB20
:102BD800061304EB0614B3F882383B8004F6850428
:102BE8006B1E033514F8012F03F8012FAB42F9D1FE
:102BF800F8BD000007B5002300931A46194603489C
:102C080002F07EF903B05DF804FB00BFC4050020A4
:102C18002DE9FF410446007C154DFF280E46174656
:102C280023D128680368D3F8A0309847431C18BFFD
:102C38002074217CFF2916D028680368D3F8948073
:102C48000C4B02937368039302AB009300223B463C
:102C5800C0472868217C0368D3F88430984701204E
:102C680004B0BDE8F0810020FAE70146E4E700BFC0
:102C7800D405002044BF00087FB504AB002423F826
:102C8800024D094C007C246841F2883625688DE89D
:102C9800480093B2D5F898500A4601462046A847FE
:102CA800BDF80E0004B070BDD405002013B502AB0A
:102CB800026803F8011D546819460122A04702B0B2
:102CC80010BD01207047000030B585B000238DF895
:102CD8000D30ADF80E300A4B017C1C6841F2883289
:102CE800236801920DF10E020092D3F88C50204611
:102CF80001230DF10D02A8479DF80D0005B030BD68
:102D0800D40500202DE9FF4116460D4A04AB17688B
:102D1800002523F8025D3A680C46017C009341F2D5
:102D280088300190D2F88C803846B3B22246C0472A
:102D3800BDF80E00864288BF255404B0BDE8F08176
:102D4800D4050020002070477047000010B5017CB2
:102D5800FF29044606D0044B186803689B6F984700
:102D6800FF23237410BD00BFD4050020007CFF386A
:102D780018BF0120704700007FB504466846154615
:102D88000E4602F0B5F8094B186803686A463146E2
:102D9800DB6E98472368064A0292019A03929B6960
:102DA8002A4602A92046984704B070BDD4050020E1
:102DB80044BF0008002242604FF47A728260024ADF
:102DC8000260FF22027470475CB90008017CFF2989
:102DD80005D0044B18680368D3F8A43018470020BE
:102DE800704700BFD4050020037CFF2B01D0FFF7FC
:102DF800EDBF00207047000007B5002300931A4676
:102E08001946034802F07CF803B05DF804FB00BFE4
:102E1800CC05002038B50478FF2C054609D1054BB0
:102E2800186803681B689847002814BF20460020CC
:102E3800287038BDD40500202DE9F341044640F63A
:102E4800C80098460E46174602F02EFA9DF8243020
:102E580001939DF8203000933A4643463146054693
:102E6800FEF7F0FC034B20461D60FF23237002B0E1
:102E7800BDE8F081D405002010B50446FFF7CAFF6D
:102E8800207810BD2DE9F8430C4D994604460F46AD
:102E98009046FFF7BFFF286803684246DE68394658
:102EA8004B46B04718B903202070BDE8F88328685E
:102EB80003681B6998470420F6E700BFD405002083
:102EC800024B186803685B6C184700BFD4050020E4
:102ED800044B10B519680B6804469B69984720464F
:102EE80010BD00BFD405002007B5002300931A4683
:102EF8001946034802F004F803B05DF804FB00BF6C
:102F0800D805002007B5002300931A461946034840
:102F180001F0F6FF03B05DF804FB00BFE0050020F8
:102F280007B5002300931A461946034801F0E8FF45
:102F380003B05DF804FB00BFE8050020084606F072
:102F4800EDBD10B5044655218068FEF727FBA06843
:102F5800BDE81040FEF740BB012A416016BF0021C2
:102F68008272817202720BB9437205E0012BFBD0A9
:102F7800022BF9D0032BF7D0704713460A46552188
:102F8800FEF74ABB30B503759DF81030044D037148
:102F98009DF80C30056081600273437130BD00BF3D
:102FA800A8B9000808B50021007B06F073FD0A20C7
:102FB800BDE8084006F0B2BD08B50121007B06F067
:102FC80069FD0A20BDE8084006F0A8BD08B5007DE7
:102FD80006F080FDC0B208BD2DE9F84306460F464D
:102FE80014461D4606F098FD80463046FFF7EEFF72
:102FF80060B906F091FDA0EB0800A842F5D930466B
:10300800FFF7DAFF4FF0FF30BDE8F8833046FFF7EF
:10301800C9FF002504F1FF3807EB0409AC4212DDB3
:10302800454517BF7B1919F8011C59787B5DB068B5
:1030380007BF012241F42061012243EA0121FFF781
:103048009CFF0235EAE7601C20F0010000B2BDE8F1
:10305800F8832DE9F04F85B004468A4601929946D7
:1030680006F05AFD06462046FFF7A6FF2046FFF762
:10307800ADFF054640B906F04FFD801B4845F5D326
:10308800284605B0BDE8F08F2046FFF78BFF06F015
:1030980043FD56460290A6EB0A07BFB220463DB252
:1030A800FFF794FF30B3019B9D4200DB13BB012265
:1030B80040F60A21A068FFF760FFC0F30F285FFA07
:1030C80088F3B8F1150F5FFA80FB039304D12268E7
:1030D80001219268204690472046FFF777FF68B99C
:1030E800B8F1150F0AD1BBF1150F03D07D1C86F876
:1030F80000B02DB22046FFF75FFFC1E79DF80C3006
:10310800737086F800B006F007FD029BC01A81456F
:1031180006F10206BFD82046FFF74EFF0025AFE7AD
:1031280010B500210446407906F0B4FC0A2006F0E8
:10313800F5FC6079012106F0ADFC4FF4FA70BDE8AA
:10314800104006F0EBBC0000F0B5044689B0012140
:10315800007906F059FC0021207906F09BFC00213B
:10316800207D06F051FC0121607906F04DFC01211B
:10317800207B06F049FC0121207B06F08BFC0C200B
:1031880002F092F80023054601223D49FFF7E4FECC
:1031980095E8070005AB83E80700079A00920CCB77
:1031A80055212561A068FEF7B9F92046FFF7B8FF59
:1031B8002046FFF7F7FE06F0AFFC0025074620463D
:1031C800FFF704FF0646002839D0012240F60A21FD
:1031D800A068FFF7D2FE08AB2B44012203F8140CB9
:1031E800000A03F8130C40F60A21A068FFF7C5FE91
:1031F800AB1C08AA52FA83F340F60A2103F8140C10
:10320800000A03F8130C01220435A068FFF7B5FE85
:10321800EDB208AB2B4403F8140C000A03F8130CA6
:1032280006F07AFCC01B6428C9D92046FFF7C4FE03
:10323800144807F0A9F84FF0FF3009B0F0BD9DF829
:103248000C30152B13D19DF80D30152B0FD19DF88F
:103258000E300D2B0BD19DF80F300A2B07D19DF89E
:1032680010303E2B03D19DF81130202B03D020467F
:10327800FFF7A2FEDFE72046FFF79EFE3046DCE7B9
:10328800809698008CB9000870B504460D4606F083
:1032980043FCC4F89000A068036829461B68BDE891
:1032A8007040184770B504460D46164606F034FCC3
:1032B800C4F89000A0680368324629465B68BDE8F8
:1032C8007040184770B5094B00250446456040F822
:1032D800A03B0E4601F00CFE4FF0FF33C4F8B430AB
:1032E800A660C4F8B050204670BD00BFC4B900083D
:1032F8002DE9F04105460E4606F00EFC43F69727E9
:103308008046A86803689B689847044650B901F04E
:10331800B1FF06F001FCA0EB0800B842F1D9204645
:10332800BDE8F081A8680368DB6898473070012021
:10333800BDE8F08138B5148821441546FFF7D8FF59
:1033480008B101342C8038BD2DE9F74F02AD0027B4
:1033580025F8027D00F10C068A462A4631460446C5
:10336800FFF7E8FF18B9002003B0BDE8F08F0DF1B2
:10337800080994F80C8009F8037D4FF0010BBDF89B
:103388000630052B08D1A0684FF0FF33C4F8B430DD
:1033980003685B6A9847E6E749462046FFF7A8FFB7
:1033A8000028E0D0BDF806209DF80510531C2244E3
:1033B8009BB2117301F07F0212FB0BF217440A064D
:1033C800ADF80630BFB24FEACB1BD8D408F0F008EE
:1033D800013BB8F1300F8AF800301CD12A4631463B
:1033E8002046FFF7A7FF0028BDD02A4631462046D1
:1033F800FFF7A0FF0028B6D09AF8003023445A7B84
:103408009E7B237B06EB02269B07B6B201D50236CC
:10341800B6B2022501E000252E46ADB2BD4225DA3E
:1034280049462046FFF764FF00289CD0D4F8B00036
:1034380078B1B8F1300F0CD1BDF806309AF80020F9
:103448009B1A023BB34204DD03689DF805101B6814
:103458009847BDF806307F2BDEBFE2189DF80510AF
:1034680011730133ADF806300135D6E7D4F8B03022
:103478002BB9BDF80620802AC8BFADF80630BDF8C4
:10348800060071E737B500240DF1080E03F07F053B
:10349800601CDB09744418BF45F08005C0B204F80D
:1034A800045C0446002BEFD1C0F1040401AD1155B2
:1034B800834205DA191A11445C5D4C710133F7E750
:1034C800013003B030BDF8B5064617461C46FFF775
:1034D800D9FFB368C0B21A680444C0F10501556841
:1034E800394422461846A847054606F015FBC6F893
:1034F8009000A8B2031B58425841F8BD023330B5BA
:1035080098B20C46631A14F8015B9BB21DB1431CB8
:10351800155498B2F6E7C11A0A44191202F8021CA7
:1035280002F8013C30BD38B50546806808B900206E
:1035380038BD03689B6A984780B9D5F8B440002C19
:10354800F5D1A8686FF00203C5F8B43003685B6969
:103558009847A86803685B6A9847E8E7012038BD80
:103568002DE9F04F85B00446894617461E460E9D44
:103578009DF848A0FFF7D7FF8046002840F0DD807F
:10358800A068D4F8A810036800294BD0DB69B4F808
:10359800AC209847012840F0D7804D218DF80A10BB
:1035A8005121042200238DF80B105421A4F88C001B
:1035B8008DF809208DF80E208DF808308DF80C1044
:1035C8008DF80D1004F1110202A8195C02F8011B14
:1035D8000133072BF9D17DB39DF840309DF83C208D
:1035E8005B0143F0040343EAC2035BB2DBB2BAF106
:1035F800000F01D043F0020317B1FEB943F0800376
:1036080023764FF00F0B0023637684F81AB04846F0
:10361800FCF7F6FD1130802813D9A06803685B6AAF
:1036280098478AE04B4A9B690292D4F8A4200392F7
:1036380002A9B4F8AC20ACE72B46D7E743F0C003A7
:10364800DEE704F10C0A49465B4652462046FFF77E
:1036580055FF8146E5B12846FCF7D2FD09F1020382
:1036680018448028D9D829464B4652462046FFF7A9
:1036780045FF05461198FCF7C3FD02302844802811
:10368800CBD82B46524611992046FFF737FF814683
:10369800F7B13846FCF7B4FD09F102031844802855
:1036A800BBD84B46524639462046FFF727FF81468E
:1036B80076B13046FCF7A4FD09F1020318448028CE
:1036C800ABD84B46524631462046FFF717FF814696
:1036D800A9F105039BB2524610212046FFF7F3FEDD
:1036E80006F01AFA43F69725C4F89000C4F8940037
:1036F800A06803689B68984758B906F00DFAD4F893
:103708009430C01AA842F3D96FF00303C4F8B43058
:1037180083E70DF107012046FFF716FE04287FF422
:103728007CAFE57B6DB906F0F7F94FF00108C4F8F6
:10373800940084F89850C4F8B450404605B0BDE8E9
:10374800F08FC4F8B45068E76FF00103C4F8B430E0
:10375800F3E700BF44BF000810B586B00124049405
:1037680000240394029401940094FFF7F9FE06B034
:1037780010BD2DE9F0470446894690461E469DF83F
:103788002070FFF7D0FE40B34846FCF739FDF31D23
:103798001844802821D804F10C052A4605234946F7
:1037A8002046FFF7ABFE002291B283188E429BB2EF
:1037B80002F1010204D9234418F801101973F3E740
:1037C800002FA3F105032A4620469BB20CBF3021E7
:1037D8003121BDE8F047FFF776BE0020BDE8F0874D
:1037E80073B5054610460E461446FCF709FD00233E
:1037F80000932246034631462846FFF7BAFF02B037
:1038080070BD012A2DE9F04104460F4616462ADC10
:103818000846FCF7F5FC0930802824D82046FFF735
:1038280082FE00B3B4F88C3001339BB2CBB1A4F85C
:103838008C30B4F88C30A3741A1204F10C0562743D
:1038480039462A4607232046FFF758FE23182A46FA
:103858001E73031F9BB220468221BDE8F041FFF78B
:1038680032BE0123E3E70020BDE8F0810022FFF724
:10387800C8BFC0F8A810A0F8AC207047C0F89C10CA
:103888007047D0F8B400704707B5002300931A4674
:103898001946034801F034FB03B05DF804FB00BF90
:1038A800F005002008B500F0C4F9431E58425841FD
:1038B80008BD37B50D4602A9002421F8024D00F0D5
:1038C800C3F801280CD0BDF8063007EE903AF8EEA0
:1038D800677AF2EE046A87EEA67A204685ED007ACA
:1038E80003B030BD37B50D4602A9002421F8024DBA
:1038F80000F028F901280CD0BDF9063007EE903AFF
:10390800F8EEE77AF2EE046A87EEA67A204685EDAD
:10391800007A03B030BDF7EE007AB4EEE70AF1EEB4
:1039280010FA08B50ED9F1EE0C7AB4EEE70AF1EE0A
:1039380010FA94BF0221032100F0EAF9431E58420D
:10394800584108BD0121F7E710B50121044600F0F0
:10395800B5F9012806D02046B7EE000ABDE81040A8
:10396800FFF7D9BF10BDBE2310B50160037104462F
:1039780000F07CF9012802D02046FFF7E5FF204639
:1039880010BDF8B50D460179044649080068164689
:103998001F4600F059FB2068036829461B689847B2
:1039A8003546AB1B9F4206DD206815F8011B0368EE
:1039B8001B689847F5E70121206800F059FB0020B3
:1039C800F8BDF8B50F460179044649080068154660
:1039D8001E4600F039FB2068036839461B68984783
:1039E8000021206800F044FB21792068F2B24908E0
:1039F80000F007FC013D206803689B68984730B1D8
:103A080020680368DB68984705F8010FF3E7F8BDFD
:103A1800012A10B51C4688BF41F080011346224692
:103A2800FFF7CFFF003018BF012010BD012A10B5E5
:103A38001C4688BF41F0800113462246FFF7A1FFCC
:103A4800003018BF012010BD2DE9F04F85B00D469C
:103A580003AB022230218346FFF7DAFF18B10120B9
:103A680005B0BDE8F08F03AB0222362158469DF819
:103A78000CA09DF80D60FFF7CBFF0028EFD103AB3A
:103A880002223A2158469DF80D909DF80C80FFF7C8
:103A9800BFFF0028E3D103AB0222282158469DF836
:103AA8000D709DF80C40FFF7B3FF0028D7D19DF8A3
:103AB8000D109DF80C3048EA092843EA01230FFA53
:103AC80088F81BB2A3EB080307EE903A4FEA5A0AAC
:103AD800CAEB5603B8EEE77A07EE903A44EA0724B1
:103AE800F8EEE77A24B2A4EB080467EE277A07EE2B
:103AF800104AB8EEC77AC7EE876A07EE90AAF8EEC2
:103B0800E77AB2EE047A76EEA77A67EE877A9FEDC7
:103B18000C7AF4EEC77AF1EE10FA0CDCF5EEC07A06
:103B2800F1EE10FA0AD4FCEEE77ACDED017ABDF891
:103B380004302B8094E74FF47A73FAE70346F8E7EA
:103B480000007A442DE9F04F85B00F4603AB0222FE
:103B580032210646FFF75CFF18B1012005B0BDE829
:103B6800F08F0DF10B03012235213046FFF750FF8E
:103B78000028F2D103AB04223C2130469DF80B40CB
:103B88009DF80CB09DF80D90FFF742FF0028E4D196
:103B98009DF80E300193022203AB2A2130469DF88E
:103BA8000DA09DF80C509DF80F80FFF731FF0028FD
:103BB800D3D1230203F4407343EA0B0B9DF80D2085
:103BC8009DF80C3045EA0A2543EA02232DB21BB2C0
:103BD800A4015B1B04F4407407EE903A4FEADB0B38
:103BE80044EA0909019BCBEBD909B8EEE77A07EE5D
:103BF800909A43EA0828F8EEE77A0FFA88F8A8EBD3
:103C0800050567EE277A07EE105AB8EEC77AC7EEB1
:103C1800876A07EE90BAF8EEE77AB2EE047A76EEA3
:103C2800A77A67EE877AFDEEE77A17EE903A3B803F
:103C380094E713B501220DF1070320210446FFF78D
:103C4800E7FE88B99DF8073063F07F038DF80730E9
:103C580001220DF1070320212046FFF7E7FE00307F
:103C680018BF012002B010BD0120FBE713B50122E7
:103C78000DF1070320210446FFF7CAFE88B99DF815
:103C8800073003F07F038DF8073001220DF1070399
:103C980020212046FFF7CAFE003018BF012002B0DD
:103CA80010BD0120FBE700000A4608B5014602489E
:103CB80006F06AFBFEE700BF1DBA0008012937B508
:103CC80005460C4604D940F267211048FFF7ECFF7F
:103CD8000DF1070301222021FFF79AFE98B99DF8FC
:103CE800071021F0040141EA84018DF807100DF155
:103CF8000703012220212846FFF798FE003018BF4D
:103D0800012003B030BD0120FBE700BFCCB900089B
:103D1800032937B505460C4604D940F2BE210F48A1
:103D2800FFF7C2FF0DF1070301222021FFF770FE04
:103D380090B99DF8073023F003031C4301220DF1CD
:103D48000703202128468DF80740FFF76FFE003053
:103D580018BF012003B030BD0120FBE7CCB9000833
:103D6800024B1878024B1B78C01A70479306002044
:103D780091060020074A0849137809788B42BFBF8B
:103D880006490968C85C0133B4BF13704FF0FF30AF
:103D9800704700BF9106002093060020A40600206B
:103DA800054B064A1B7812789342BDBF044A126835
:103DB800D05C4FF0FF30704791060020930600203A
:103DC800A4060020044B1B682BB1044900220A708A
:103DD80003490A70184770479C0600209206002085
:103DE8009406002038B52028074D38BF2020044607
:103DF8000146286806F0E0FA044B2860002808BF4E
:103E080000241C7038BD00BFA8060020A1060020B1
:103E180037B5164B8DF807101B780546DBB1144CE7
:103E2800144A207812780130904201D9FFF7DAFF5E
:103E3800114B186818B901236B6003B030BD0F4AE5
:103E48009DF807101378C15413780133DBB213704F
:103E580023700120F1E701220DF10701143005F06C
:103E68006BF9B0FA80F04009E7E700BF9006002040
:103E780094060020A1060020A80600209206002033
:103E8800044B186820B1044B00211A7805F0F1BEE4
:103E9800704700BFA4060020A0060020044B186845
:103EA80020B1044B00211A7805F0E3BE704700BF2B
:103EB800A8060020A1060020074B10B500241C709E
:103EC800064B1C70FFF7DCFF054B1C70054B1C7084
:103ED800BDE81040FFF7E2BF9106002093060020DE
:103EE8009206002094060020F8B5164B1B7806466B
:103EF8000F461446EBB1144D144B28781B78104428
:103F0800984201D9FFF76EFF114B1B6823B90122B4
:103F180072601C462046F8BD0E4E30782246184482
:103F2800394605F081FE33782344DBB233702B70B9
:103F3800F0E792B2143005F0FFF8002818BF00240B
:103F4800E8E700BF9006002094060020A1060020A4
:103F5800A806002092060020002242604FF47A72E0
:103F68008260054A0260054A917B80F86410D27B22
:103F780080F86520704700BFBCBA000815BE00086D
:103F8800002343604FF47A7354298360084B03601D
:103F980096BF084B4FF0FF335B5680F86430542AC5
:103FA80096BF044B4FF0FF339B5680F8653070473F
:103FB800BCBA000815BE0008194B73B500251D7062
:103FC800184B04460E461D70FFF75AFF164B1D701E
:103FD800164B1D70FFF762FF332E154B14BF657427
:103FE80001221D7008BF62747300DBB2627C237407
:103FF80004F1140500920F490122284604F03EFFFF
:10400800637C53B928460C4905F0E8F80B49284663
:1040180002B0BDE8704005F0DAB802B070BD00BF6C
:1040280091060020930600209206002094060020A6
:1040380090060020E4A4D010CD3D0008FD40000803
:104048003321FFF7B9BF0000054B01221A70054B59
:104058009140054A197000231370044A1370704781
:1040680090060020AC06002092060020940600204E
:1040780038B5437CCBB10E4D0E4A0F492B781268E8
:104088000978143005F024F868B101280CBF012420
:104098000424FFF703FF094A00231370084A2B7012
:1040A8001370204638BD0446F3E70424F9E700BF3F
:1040B80094060020A8060020AC06002092060020E6
:1040C8009006002070B5094D2B7883420DD2202828
:1040D800074E38BF202004460146306806F06CF9C8
:1040E800002808BF002430602C7070BDA006002096
:1040F800A40600202DE9F047134D2B6880460C4696
:10410800FBB1124A124F107839788842914618DB71
:10411800104E2046FFF7D6FF326822B940F28311CD
:104128000D4804F0A6FD22464146306805F07CFDA6
:10413800002389F800303C702B682046BDE8F04722
:104148001847BDE8F08700BF9806002091060020B8
:1041580093060020A40600204ABA00082DE9F84377
:104168009946437C9DF8204006460F46154643B1C4
:104178001046FFF7A7FF1B4A136890461BB9012298
:1041880072601D462AE0BCB139463046FFF75CFF35
:10419800032CA8BF0324013CE4B2FF2C08D0E100A3
:1041A800336829FA01F11B68C9B230469847F2E72B
:1041B80000213046FFF75CFF7900ABB2D8F8002049
:1041C80001F0FE0106F1140004F0CDFF064B0022B9
:1041D8001A700028054B18BF00251D702846BDE839
:1041E800F88300BFA4060020910600209306002053
:1041F80007B5019300230093FFF7B0FF03B05DF804
:1042080004FB0123FFF7F4BF0148FFF7A5BE00BF79
:10421800F8050020BA2310B5016003710121044696
:1042280000F038F9012821D00021204600F051F98A
:1042380001281BD00021204600F07CF9012815D068
:104248000021204600F096F901280FD002212046CF
:1042580000F0AFF9012809D00121204600F0C7F984
:1042680001281FBF00236371014BA360204610BDC6
:104278000000C84137B50D4602A9002441F8044D95
:1042880000F0F0F901280AD0DDED017ADFED056ACA
:10429800F8EEE77A204687EEA67A85ED007A03B035
:1042A80030BD00BF0000C84213B50C460DF1070130
:1042B80000F02EF9012815D09DF80700202818D005
:1042C80006D868B110280FD00D4B2360012009E0F3
:1042D800402810D0502810D03028F5D1094B05E0DF
:1042E8000023236002B010BD4FF07E5323600020EE
:1042F800F8E7054BFAE7054BF8E7054BF6E700BF8B
:10430800000080BF0000C841000020410000484272
:1043180000009642F7EE007AB4EEE70AF1EE10FAE2
:1043280010B5044624D9F2EE047AB4EEE70AF1EEA9
:1043380010FA1FD9F3EE097AB4EEE70AF1EE10FA93
:104348001AD9DFED0E7AB4EEE70AF1EE10FA94BF4F
:1043580040215021204600F0BCF8012807D004F184
:1043680008012046FFF7A0FF431E5842584110BDE0
:104378001021EFE72021EDE73021EBE7000048426C
:1043880010B54379012B044607D090ED020AFFF7D8
:10439800C1FF012802D001236371002010BDF8B5C8
:1043A8000D46017904464908006816461F46FFF77E
:1043B8004BFE2068036829461B6898473546AB1BA7
:1043C8009F4206DD206815F8011B03681B689847A3
:1043D800F5E701212068FFF74BFE0020F8BDF8B58E
:1043E8000F46017904464908006815461E46FFF73E
:1043F8002BFE2068036839461B689847002120680F
:10440800FFF736FE21792068F2B24908FFF7F9FE76
:10441800013D206803689B68984730B120680368AD
:10442800DB68984705F8010FF3E7F8BD2DE9F0417F
:1044380006460F46154698460024AC4202DB00208B
:10444800BDE8F0813919012308EB0402C9B23046EE
:10445800FFF7C5FF08B90134EFE70120BDE8F08197
:104468002DE9F04106460F46154698460024AC4211
:1044780002DB0020BDE8F0813919012308EB0402B2
:10448800C9B23046FFF78BFF08B90134EFE70120C6
:10449800BDE8F08137B50C460DF1070301221A215A
:1044A8000546FFF7C3FF90B99DF8073023F00103D5
:1044B8001C4301220DF107031A2128468DF80740F5
:1044C800FFF7CEFF003018BF012003B030BD012038
:1044D800FBE737B50C460DF107030122102105460D
:1044E800FFF7A4FF90B99DF8073023F070031C4331
:1044F80001220DF10703102128468DF80740FFF728
:10450800AFFF003018BF012003B030BD0120FBE72A
:1045180013B501220C460DF107031021FFF786FFA2
:1045280030B99DF8073003F07003237002B010BD56
:104538000120FBE737B50D460DF1070301221021D5
:104548000446FFF773FF98B99DF8071021F008019A
:1045580041EAC5018DF807100DF10703012210216A
:104568002046FFF77DFF003018BF012003B030BDA3
:104578000120FBE737B50C460DF107030122102196
:104588000546FFF753FF90B99DF8073023F0040361
:104598001C4301220DF10703102128468DF807401E
:1045A800FFF75EFF003018BF012003B030BD0120C7
:1045B800FBE773B501220D460DF1070310210646EE
:1045C800FFF734FF044680B99DF8073023F0020353
:1045D8001D4301220DF10703102130468DF80750C5
:1045E800FFF73EFF204602B070BD0124FAE737B559
:1045F8000D460DF10703012211210446FFF716FFAE
:1046080098B99DF8071021F0100141EA05118DF8BD
:1046180007100DF10703012211212046FFF720FFA3
:10462800003018BF012003B030BD0120FBE713B5EF
:1046380003220C4601AB2821FFF7F8FE80B99DF84C
:1046480006309DF805201B0443EA02239DF8042048
:1046580013431A0248BF43F07F43236002B010BDE2
:104668000120FBE713B50C4601A9FFF7E0FF48B9A5
:10467800019A642353434FF4805293FBF2F323606F
:1046880002B010BD0120FBE710B54021044600F040
:104698001FFA28B120460021BDE8104000F035BAC5
:1046A80010BD08B5002100F074F9B0FA80F0400997
:1046B80008BD000013B50C460DF1070100F0C0F964
:1046C800B8B19DF8070020280DD002D838B10A4BA0
:1046D8000AE040280BD06028F9D1084B04E0084BC9
:1046E800236002B010BD074B23600020F9E7064B9A
:1046F800FAE70120F5E700BF000080BFE17A143F28
:10470800295C0F3EE17A943EF628DC3E37B500245A
:104718000D4669460094ADF8044000F0BCF9B8B104
:104728009DF801209DF8003003EB02232B809DF8B3
:1047380003209DF8023003EB02236B809DF80520CF
:104748009DF8043003EB0223AB80204603B030BD54
:104758000120FBE730B585B000230C4602A90546C9
:104768000193FFF7D3FF012802D1012005B030BD26
:1047780001A92846FFF79EFF0128F6D0BDF90830A9
:10478800DDED016A07EE103AB8EEC77ABDF90A30D6
:1047980027EE267A0020BDEEC77A84ED007A07EE70
:1047A800103ABDF90C3007EE903AB8EEC77AF8EE39
:1047B800E77A27EE267A67EEA67ABDEEC77AFDEE8F
:1047C800E77A84ED017AC4ED027ACFE7F6EE047A4F
:1047D800B4EEE70AF1EE10FA08B531D9F7EE047A2B
:1047E800B4EEE70AF1EE10FA2CD9F0EE047AB4EE42
:1047F800E70AF1EE10FA27D9F1EE047AB4EEE70AE7
:10480800F1EE10FA22D9F2EE047AB4EEE70AF1EEEC
:1048180010FA1DD9F3EE047AB4EEE70AF1EE10FAB5
:1048280018D9DFED0D7AB4EEE70AF1EE10FA94BF6D
:1048380018211C2100F012F9B0FA80F0400908BDD7
:104848000021F7E70421F5E70821F3E70C21F1E758
:104858001021EFE71421EDE700002042F1EE007A85
:10486800B4EEE70AF1EE10FA08B515D9F2EE007ABF
:10487800B4EEE70AF1EE10FA10D9F2EE087AB4EEC7
:10488800E70AF1EE10FA94BF4021602100F0BBF86E
:10489800B0FA80F0400908BD0021F7E72021F5E7CC
:1048A8003C2310B5016003710221044600F071F841
:1048B800A8B14021204600F089F880B19FED090A8F
:1048C8002046FFF783FF012809D0B1EE000A2046F1
:1048D800FFF7C4FF012802D02046FFF7D5FE204687
:1048E80010BD00BF0000A042F8B50D46017904468E
:1048F8004908006816461F46FFF7A6FB20680368AC
:1049080029461B6898473546AB1B9F4206DD206841
:1049180015F8011B03681B689847F5E70121206813
:10492800FFF7A6FB0020F8BDF8B50F46017904464D
:104938004908006815461E46FFF786FB206803688D
:1049480039461B68984700212068FFF791FB2179B9
:104958002068F2B24908FFF754FC013D206803685B
:104968009B68984730B120680368DB68984705F86A
:10497800010FF3E7F8BD08B5FFF7B6FFB0FA80F00E
:10498800400908BD08B5FFF7CFFFB0FA80F040092D
:1049980008BD37B501230C460DF107022221054653
:1049A800FFF7F0FF80B19DF8073023F003031C43A5
:1049B8000DF107020123222128468DF80740FFF751
:1049C800DAFF003018BF012003B030BD37B501232E
:1049D8000C460DF1070224210546FFF7D3FF80B1ED
:1049E8009DF8073023F040031C430DF10702012313
:1049F800242128468DF80740FFF7BDFF003018BF77
:104A0800012003B030BD37B501230C460DF1070274
:104A180021210546FFF7B6FF80B19DF8073023F046
:104A280060031C430DF107020123212128468DF85C
:104A38000740FFF7A0FF003018BF012003B030BDCA
:104A480010B50A460C4601232121FFF79BFF20B130
:104A5800237803F060032370012010BD37B50123CC
:104A68000C460DF1070220210546FFF78BFF80B1A8
:104A78009DF8073023F01C031C430DF107020123A6
:104A8800202128468DF80740FFF775FF003018BF32
:104A9800012003B030BD2DE9F041074688460325C3
:104AA8000024A61CF6B204F12801012308EB040235
:104AB800C9B23846FFF766FF40B10134E4B2A642F6
:104AC800F1D1013D15F0FF05EBD10120BDE8F081E2
:104AD80037B501230C460DF1070220210546FFF7E3
:104AE80051FF80B19DF8073023F060031C430DF19E
:104AF80007020123202128468DF80740FFF73BFFD6
:104B0800003018BF012003B030BD37B501230C4673
:104B18000DF1070220210546FFF734FF80B19DF80B
:104B2800073003F07F031C430DF107020123202106
:104B380028468DF80740FFF71EFF003018BF0120F8
:104B480003B030BD404B00B59A6D42F080529A6573
:104B58009A6DBBB002F080520192019AD3F890206E
:104B680022F01802C3F89020102301220793002393
:104B78000D920E9312926023139228220F9314928F
:104B88000223072207A8119315921693179301F091
:104B980001FD18B1BA212D4804F06BF80F230293D8
:104BA800032303930421002302A804930593069387
:104BB80001F024FF18B1C621244804F05AF8244B08
:104BC8001893002326932793289329932A932C93A9
:104BD8002D9338934FF080633393012319931A93DD
:104BE80018231B9307231C9302234FF040521D9355
:104BF8001E9318A84FF4801336921F9302F0C2F840
:104C080018B1E221114804F034F84FF4007001F0B3
:104C1800DBFB18B1E9210D4804F02BF801F080FF07
:104C28004FF47A73B0FBF3F000F0C4FB042000F0FB
:104C3800E7FB02F08FFA002211464FF0FF3000F038
:104C480077FB3BB05DF804FB00100240A4BD0008F0
:104C5800DF600100B0F8A230013303F03F03A0F891
:104C6800A230B0F8A230B0F8A0009BB298424FF042
:104C7800FF3018BF00207047B0F82C31B0F82E0173
:104C8800181A00F03F007047B0F82C31B0F82E2108
:104C98009BB293421ABFD0F82831985C4FF0FF308E
:104CA8007047B0F82C21B0F82E3192B29A421FBF4B
:104CB800D0F82821D25C013303F03F031ABFA0F8D3
:104CC8002E3110464FF0FF30704713B50DF1070134
:104CD800044604F031FD98B9B4F89830B4F89A2035
:104CE800013303F03F0393420AD0B4F89820D4F874
:104CF80094109DF8070092B29BB28854A4F898309B
:104D080002B010BD10B5B0F8344101230374E318A4
:104D180003F03F03B0F8362192B29342FAD0D0F8AC
:104D28003021115500F19404A0F83431204604F0E4
:104D3800F1FC18B90249204604F046FD012010BDD7
:104D48005D4C0008037C33B1B0F83421B0F836313B
:104D58009BB29A42FAD1704708B5044B2BB104486C
:104D6800FFF78AFF08B1AFF3008008BD000000001C
:104D7800B006002000F11103C0F8283100F15102FB
:104D88000023A0F82C31A0F82E31C0F83021A0F86B
:104D98003431A0F83631704738B5002343604FF4FA
:104DA8007A7383600F4B03600F4B984204460D469D
:104DB8000BD10E4BDA7C9B7C80F8252180F82431BE
:104DC8002046FFF7D7FF204638BD0949284603F09B
:104DD800BFFC084984F82501284603F0B9FC84F88B
:104DE8002401EDE7F0BE0008B006002015BE00085B
:104DF800FCBC000850BD000802F00703023BDBB210
:104E0800042B10B5C0F8141198BF204980F8382138
:104E180098BFCB5C02F0300188BF0023302920D135
:104E28004FF4C061C0F82011013312F0080218BF16
:104E38004FF40052082BC0F81C211BD0092B1BD0A3
:104E4800072B1CD14FF0805300F19404C0F818319F
:104E5800204604F031FA20460D49BDE8104004F020
:104E680087BC12F0200102D04FF48061DAE7C0F865
:104E78002011DAE70023E7E74FF48053E4E7054B16
:104E8800054A064840F22B1104F05CFE6ABE000891
:104E9800D34C00086FBE000808BF00087BBE00089E
:104EA80001490248FFF778BF00380140B0060020EA
:104EB8002DE9F84306460D46071D00F107090024B1
:104EC80017F8011B0A22284600F0DDF82E2180463B
:104ED800284600F058F84F4540440444F0D10A22CF
:104EE800F179284600F0CFF82044BDE8F8830000A7
:104EF800024A026000224260704700BF44BF0008B7
:104F080030B58371034D9DF80C3005600171427115
:104F1800C37130BD44BF0008024A02600A6842609B
:104F2800704700BF44BF00082DE9F04106460D4612
:104F380001EB02080C464445A4EB050707D033688B
:104F480014F8011B1B68304698470028F3D13846EF
:104F5800BDE8F08170B505460C46084649B1FBF737
:104F68004FF92B680246214628465B68BDE8704029
:104F7800184770BD03688A685B680968184708B5F0
:104F8800FFF7E8FF08BD03681B6818470A680B4667
:104F9800126801461846104708B50249FFF7DAFFBC
:104FA80008BD00BF01B8000838B50546FFF7E2FFA5
:104FB80004462846FFF7F0FF204438BD38B50546BB
:104FC800FFF7C8FF04462846FFF7E6FF204438BD30
:104FD80038B50546FFF7DAFF04462846FFF7DCFF39
:104FE800204438BD30B58BB00B4600218DF8241015
:104FF800012AD8BF0A220DF12304B3FBF2F505FB01
:10500800123303F0FF03092B94BF30333733DBB27D
:10501800214604F801392B46002DEED1FFF79AFFFF
:105028000BB030BD2DE9F04107460E4615462AB9AA
:105038000368C9B21B68BDE8F04118470A2A05D1C0
:10504800002905DBBDE8F041FFF7CCBFD2B2F9E794
:105058002D21FFF798FF2A46044671423846FFF78C
:10506800C1FF2044BDE8F081FFF7DCBF10B42AB9C6
:1050780003685DF8044B1B68C9B21847D2B25DF8E3
:10508800044BFFF7AFBFFFF7F1BF836810B50446C5
:1050980013B1032201469847204610BD10B50446B7
:1050A800006804F0B9FD204610BD10B5044600683C
:1050B80008B104F0B1FD00232360A360636010BD54
:1050C80038B504460D460068013105F075F910B190
:1050D80084E82100012038BD036810B5044623B1D7
:1050E80043688B4201D3012010BD2046FFF7E8FF3B
:1050F8000028F9D0A368002BF5D122681370F2E7D5
:1051080070B50E46114604461546FFF7E5FF20B96F
:105118002046FFF7CAFF204670BDA56031462068CB
:1051280005F0C9F9F7E738B5002304460360436082
:1051380083600D4639B10846FBF762F829460246F6
:105148002046FFF7DDFF204638BD00002DE9F04777
:1051580059EC108BA2B004460F46154600230022D6
:1051680010EE100A4946FBF7D1FC002864D009F17B
:105178000043994601263A494FF0000A0020BA45F3
:105188005CDB02460B4640464946FBF79BF88946DE
:105198008046FBF70BFD8246FBF7D0F902460B462B
:1051A80040464946FBF78CF8804689460EB1CAF15D
:1051B800000A2C4900260020BE4246DB42464B46E8
:1051C800FBF732FAFBF7CAFC00260346524626498B
:1051D800284605F03DF931467D2202A8019604F0E3
:1051E80048FDB4422846BCBF64420126FBF708F8D4
:1051F80084421DD98022202101A804F03AFD2846C6
:10520800FAF7FEFF22AB241A1C44002304F8843C5E
:105218000EBB284605F058F901A90446284605F0B2
:105228004AF92146284605F037F9204604F0F4FCEF
:10523800284622B0BDE8F08706469CE700220B4BC3
:10524800FBF71CFB0AF1010A99E70022074BFBF761
:10525800EBF90136B0E701A9284605F01DF9E7E7A3
:105268000000E03F0000F03F48BF00080000244075
:1052780003F0B0B97047704708B5032000F046F84E
:10528800BDE80840FFF7F4BF08B5FFF7F4FFFBF7E8
:1052980001FF044CFBF7B4FF002CFBD0FFF75CFDCB
:1052A800F8E700BF614D000804F0AEBC704700008D
:1052B80010B5084B044618684FF47A73B0FBF3F046
:1052C80000F078F8002221464FF0FF3000F030F867
:1052D800002010BD0C00002008B5032000F016F8CF
:1052E8000F20FFF7E5FFFFF7E1FF002008BD0000F2
:1052F800024A136801331360704700BF840A002014
:10530800014B1868704700BF840A0020074AD36819
:1053180023F4E0631B041B0C43F0BF63000243F457
:10532800003300F4E0600343D360704700ED00E011
:10533800174B30B5DC68C4F30224C4F10703251DFC
:10534800042B28BF0423062D4FF0010505FA03F3AB
:1053580003F1FF338CBF033C00241940A14005FA38
:1053680004F4013C2240002842EA01024FEA0212FA
:10537800ADBF00F1604000F00F00064B00F5614042
:10538800B5BFD2B2D2B21A5480F8002330BD00BFE4
:1053980000ED00E014ED00E0002808DB42090123DD
:1053A80000F01F0003FA00F0014B43F82200704799
:1053B80000E100E00138B0F1807F0AD2064B074ACD
:1053C8005860F02182F823100020072298601A60A4
:1053D80070470120704700BF10E000E000ED00E0DA
:1053E800002809DB4309012200F01F0002FA00F03F
:1053F8006033024A42F82300704700BF00E100E032
:10540800044B1A6804280CBF42F0040222F004027C
:105418001A60704710E000E0704708B5FFF7FCFF1E
:1054280008BD10B5044640B10223037102F0F8FF2D
:10543800002020616071207110BD012010BD10B5E1
:1054480004680122236802FA01F123EA01032360B8
:105458000271002010BD90F82520022A10B503D053
:105468000422C263012010BD0268046C1168836BBA
:1054780021F00E011160116821F001011160426CE8
:10548800012102F01C0201FA02F26260002480F895
:10549800251080F8244013B19847204610BD1846BF
:1054A80010BD00002DE9F04F85B00B68DFF8A8812A
:1054B800674C01930023019ADA4002D105B0BDE898
:1054C800F08F0126019A9E4012EA060E00F0B18084
:1054D8004A6822F01007022F16D14FEAD30900EBD1
:1054E800890903F0070AD9F820504FEA8A0A4FF0D1
:1054F8000F0C0CFA0AFC25EA0C0C0D6905FA0AF5E2
:1055080045EA0C05C9F820504FEA430C0325D0F8AA
:1055180000B005FA0CF5ED4302F0030A0BEA050B9F
:105528000AFA0CF9013F49EA0B09012FC0F800906B
:1055380011D8876805EA0709CF6807FA0CF747EA20
:1055480009078760476827EA0609C2F300179F40E2
:1055580047EA09074760BAF1030F07D1C76A27EA84
:105568000606C2F3C0079F403E43C662C668354080
:105578008E6806FA0CF63543C560D50059D5D8F8BB
:10558800605045F00105C8F86050D8F8605023F025
:10559800030606F1804605F0010506F580360395F9
:1055A80003F0030C039DB5684FEA8C0C0F2707FA2C
:1055B8000CF7B0F1904F25EA07073CD0254DA842DB
:1055C8003BD005F58065A84239D005F58065A8422D
:1055D80037D005F58065A84235D005F58065A84225
:1055E80033D005F58065A84214BF0725062505FABE
:1055F8000CF53D43B56025686FEA0E06D70354BF26
:1056080035404EEA050525606568970354BF354067
:105618004EEA05056560A568D70254BF35404EEAD5
:105628000505A560E568920254BF35404EEA0505B8
:10563800E56001333FE70025D9E70125D7E70225D3
:10564800D5E70325D3E70425D1E70525CFE700BF34
:105658000004014000040048001002400369194298
:1056680014BF0120002070470AB181617047816230
:105678007047000008B5044B5969014202D05861CF
:1056880002F0C0FF08BD00BF0004014003689A692A
:10569800910744BF00229A629A69D2075EBF9A694D
:1056A80042F001029A61704730B5039C05682343B4
:1056B800640D04F4806444F07F7444F458346868DA
:1056C800C1F3090144F47F74194344F0030441EA27
:1056D800024120EA04042143696030BD174B30B50C
:1056E800446B9C4201F0120201F0040302D0144DF5
:1056F800AC4212D1002B01F011010CBF0023B823DA
:10570800112908BF43F09003122A01D143F0600326
:10571800026811680B43136030BD002B0CBF0023D7
:10572800B823CC0748BF43F0F203890748BF43F0CA
:10573800F403122A08BF43F02003E9E70D620008CA
:10574800675F000811F0010307D090F8413003F0BB
:105758002803282B0CBF4223F2238A0709D590F887
:10576800412002F02802282A0CBF43F0440343F0EA
:10577800F4034A0701F0110248BF43F0B80301F0EF
:105788001201112A08BF43F09003122901680A6820
:1057980008BF43F0600322EA03030B6070477047B9
:1057A80010B5044608B96064FFDE90F8413003F094
:1057B800FF021BB980F84020FFF7F1FF242384F88B
:1057C80041302368E1681A6822F001021A606268B1
:1057D80022F070621A619A68012922F400429A60E4
:1057E800A26824D142F400429A605A68616942F082
:1057F800007242F400425A60DA6822F40042DA6029
:1058080022690A43A16942EA0122DA60216AE2694F
:105818000A431A601A6842F001021A600020202325
:10582800606484F84130206384F8420010BD42F47B
:10583800044202299A6004BF4FF400625A60D4E718
:1058480037B5044690F84100202836D12068806991
:1058580010F4004031D194F84050012D2DD001258D
:1058680084F84050212584F84150102584F842508E
:1058780060646385124BE362124B6363638D124865
:1058880062629BB2FF2B8BBFFF23638D2385238529
:105898008CBF4FF080734FF0007394F8282000906D
:1058A80000252046FFF700FF204684F840500121DC
:1058B800FFF714FF284603B030BD0220FBE700BF06
:1058C8000000FFFFEF6000080020008037B50446A5
:1058D80090F84100202836D12068806910F40040F3
:1058E80031D194F84050012D2DD0012584F8405035
:1058F800222584F84150102584F84250606463855D
:10590800124BE362124B6363638D124862629BB26F
:10591800FF2B8BBFFF23638D238523858CBF4FF01F
:1059280080734FF0007394F82820009000252046DB
:10593800FFF7BAFE204684F840500221FFF7CEFE5A
:10594800284603B030BD0220FBE700BF0000FFFF80
:10595800EF60000800240080F8B51F4690F8413039
:1059680003F02803282B04460E46154604D101B13E
:1059780022B94FF4007363640120F8BD0521FFF7D5
:10598800E1FE90F84030012B33D0012380F84030FD
:1059980090F841302A2B0BD10221FFF7D3FEC06BC0
:1059A80030B12268136823F400431360FFF753FDF6
:1059B800292384F84130202384F8423022680023C8
:1059C8006364516821F4004151606585618D2185CA
:1059D800E7620949616391696662C90344BF0821A6
:1059E800D161204684F840300521FFF777FE00207A
:1059F800F8BD0220F8BD00BF2D5E0008F8B51F46AF
:105A080090F8413003F02803282B04460E4615462B
:105A180004D101B122B94FF4007363640120F8BDC9
:105A28000621FFF78FFE90F84030012B32D090F816
:105A380041300121292B80F840100AD1FFF782FE5E
:105A4800806B30B12268136823F480431360FFF73A
:105A580002FD2A2384F84130202384F8423022684A
:105A680000236364516821F4004151606585618DAC
:105A78002185E7620849616391696662C9035CBF71
:105A88000821D161204684F840300621FFF726FE20
:105A98000020F8BD0220F8BD2D5E000890F84120D6
:105AA800202A08B509D1282280F84120044A4263F7
:105AB8000421FFF713FE002008BD022008BD00BF27
:105AC8002D5E00080268436B9169126803B118479C
